:100000000C947D000C94B5050C948E050C94A50001
:100010000C94A5000C94A5000C94A5000C94A500CC
:100020000C94A5000C94A5000C94A5000C94A500BC
:100030000C94A5000C94A5000C94A5000C94A500AC
:100040000C9444050C94A5000C9412050C94EC043B
:100050000C94A5000C94A5000C94A5000C94A5008C
:100060000C94A5000C94A5000000000024002700BB
:100070002A0000000000250028002B0000000000DE
:1000800023002600290004040404040404040202DA
:100090000202020203030303030301020408102007
:1000A0004080010204081020010204081020000012
:1000B0000008000201000003040700000000000027
:1000C00000005E01011F01030301008A02010A0111
:1000D0000202010064001E47040B0906007C0101B6
:1000E000060103030100F401060E0102020100C231
:1000F0000117010102020101DC0511241FBECFEF2F
:10010000D8E0DEBFCDBF11E0A0E0B1E0E8E6FEE060
:1001100002C005900D92A831B107D9F722E0A8E1FD
:10012000B1E001C01D92A736B207E1F710E0CDE7BC
:10013000D0E004C02197FE010E942707CC37D107E9
:10014000C9F70E9433060C9432070C9400000895FE
:10015000CF92DF92EF92FF920F931F93CF93DF9393
:100160006C017A018B01C0E0D0E0CE15DF0589F08B
:10017000D8016D918D01D601ED91FC910190F08136
:10018000E02DC6010995892B11F47E0102C021964C
:10019000ECCFC701DF91CF911F910F91FF90EF90AE
:1001A000DF90CF900895089580E090E00895FC01DD
:1001B000538D448D252F30E0842F90E0821B930BCC
:1001C000541710F0CF96089501970895FC01918D72
:1001D000828D981761F0828DDF01A80FB11D5D96A9
:1001E0008C91928D9F5F9F73928F90E008958FEF17
:1001F0009FEF0895FC01918D828D981731F0828DCB
:10020000E80FF11D858D90E008958FEF9FEF089521
:10021000FC01918D228D892F90E0805C9F4F821B85
:1002200091098F739927089587EB91E00E94080147
:1002300021E0892B09F420E0822F0895FC01848DB0
:10024000DF01A80FB11DA35ABF4F2C91848D90E000
:1002500001968F739927848FA689B7892C93A089DB
:10026000B1898C9180648C93938D848D981306C092
:100270000288F389E02D80818F7D80830895EF923D
:10028000FF920F931F93CF93DF93EC0181E0888F50
:100290009B8D8C8D981305C0E889F989808185FD37
:1002A00024C0F62E0B8D10E00F5F1F4F0F73112728
:1002B000E02E8C8DE8120CC00FB607FCFACFE8894F
:1002C000F989808185FFF5CFCE010E941E01F1CF13
:1002D0008B8DFE01E80FF11DE35AFF4FF0820B8F6B
:1002E000EA89FB898081806207C0EE89FF8960838B
:1002F000E889F98980818064808381E090E0DF91E2
:10030000CF911F910F91FF90EF900895CF93DF93BE
:10031000EC01888D8823C9F0EA89FB89808185FDFD
:1003200005C0A889B9898C9186FD0FC00FB607FC5E
:10033000F5CF808185FFF2CFA889B9898C9185FF9F
:10034000EDCFCE010E941E01E7CFDF91CF9108953E
:1003500080E090E0892B29F00E94140181110C9417
:1003600000000895833081F028F4813099F08230C4
:10037000A1F008958730A9F08830B9F08430D1F425
:10038000809180008F7D03C0809180008F77809363
:100390008000089584B58F7702C084B58F7D84BDB9
:1003A00008958091B0008F7703C08091B0008F7D59
:1003B0008093B0000895CF93DF93282F30E0F901A8
:1003C000E255FF4F8491F901E656FF4FD491F901B0
:1003D000EA57FF4FC491CC2391F081110E94B201E2
:1003E000EC2FF0E0EE0FFF1FE458FF4FA591B49102
:1003F000EC91ED2381E090E021F480E002C080E008
:1004000090E0DF91CF9108951F93CF93DF93282F32
:1004100030E0F901E255FF4F8491F901E656FF4FB4
:10042000D491F901EA57FF4FC491CC23C9F0162F9C
:1004300081110E94B201EC2FF0E0EE0FFF1FEE5889
:10044000FF4FA591B4918FB7F894111105C09C91FD
:10045000ED2FE095E92302C0EC91ED2BEC938FBFDB
:10046000DF91CF911F9108951F93CF93DF93182FA2
:10047000D92F80916602882319F060E0C1E002C0A4
:1004800061E0C0E080915A020E94040240915E0245
:1004900050915F02149F9001159F300D112422305E
:1004A000310540F0C901880F991F880F991F0597E2
:1004B0000197F1F76C2F80915A020E94040220915B
:1004C0005E0230915F02D29FC001D39F900D112434
:1004D0008230910538F0880F991F880F991F059772
:1004E0000197F1F7DF91CF911F9108954F925F929D
:1004F0006F927F928F929F92AF92BF92EF92FF92F4
:100500000F931F93CF93DF9320915A0230915B0298
:100510002F3F3F4F09F48BC0C0915802D091590230
:10052000CF3F2FEFD207B9F0C23078F4C13011F0CD
:10053000E89801C0E998FE01FF27EE0FFF1FE05089
:10054000FF4F27EA30E0318320832FEF3FEF3093D6
:100550005902209358024B015C01E12CF12C412CF3
:10056000512C3201439480915C0290915D02E81617
:10057000F90664F507E110E0D301C201002E04C0C2
:10058000880F991FAA1FBB1F0A94D2F788219921AF
:10059000AA21BB21892B8A2B8B2B29F08091640205
:1005A0009091650204C080916202909163020E9462
:1005B00034020150110900F78091600290916102AC
:1005C0000E9434028FEFE81AF80ACDCFCF3F2FEF09
:1005D000D20769F1D0935902C09358021092540285
:1005E0001092550210925602109257021092B601C4
:1005F0001092B5018C2FC230D0F4DD27CC0FDD1F57
:10060000C050DF4F27E833E039832883813041F041
:10061000809169008C7F816080936900E89A07C0AF
:1006200080916900837F846080936900E99ADF91FB
:10063000CF911F910F91FF90EF90BF90AF909F903F
:100640008F907F906F905F904F900895CF93DF933E
:1006500090E0FC01E656FF4F2491FC01EA57FF4F62
:100660008491882361F190E0880F991FFC01E8597B
:10067000FF4FC591D491FC01EE58FF4FA591B49165
:10068000611109C09FB7F8948881209582238883DF
:10069000EC912E230BC0623061F49FB7F89438813F
:1006A000822F809583238883EC912E2B2C939FBFE0
:1006B00006C08FB7F894E8812E2B28838FBFDF9177
:1006C000CF9108953FB7F8948091AF019091B00118
:1006D000A091B101B091B20126B5A89B05C02F3FF2
:1006E00019F00196A11DB11D3FBFBA2FA92F982F58
:1006F0008827820F911DA11DB11DBC01CD0142E0D3
:10070000660F771F881F991F4A95D1F708952F927A
:100710003F924F925F926F927F928F929F92AF9291
:10072000BF92CF92DF92EF92FF920F931F93CF93DE
:10073000DF93CDB7DEB765970FB6F894DEBF0FBE77
:10074000CDBF0E9462036B017C018091A601909154
:10075000A7012601481A590A2DEC421620E152063B
:1007600008F4F6C08091200190912101A201481B5C
:10077000590BCA0157FF03C0919581959109883C97
:1007800091050CF0E1C080911E0190911F0101962E
:1007900090931F0180931E01029709F0D5C092EC3F
:1007A000692E90E0792E01E010E020901C0130903D
:1007B0001D013B862A8649E050E0B301CE01019637
:1007C0000E940A078C816B81681708F4682F70E01B
:1007D00080912001909121010E9413079B0140917B
:1007E000040150910501649FC001659F900D749FA5
:1007F000900D112464E670E00E9413078985811131
:1008000003C0A1E0B0E002C0A2E0B0E08D81829F11
:10081000A001839F500D11245D874C878E81829F9C
:100820001001839F300C11243F862E868F81829F7A
:10083000A001839F500D1124598B488B8885829F7E
:100840001001839F300C11243B8A2A8AFD01EE0F90
:10085000FF1FE05EFE4F812C912C54014A855B8581
:10086000415051095D8B4C8B8C899D89A817B90724
:1008700008F040C0880C991CAA1CBB1C8081918187
:10088000AC012C843D844219530957FF03C0519594
:10089000419551094617570770F4428153812E84C0
:1008A0003F844219530957FF03C05195419551099F
:1008B00046175707E0F0288839888219930997FF6F
:1008C00003C09195819591098617970780F58281DC
:1008D00093814A895B89841B950B97FF03C091958F
:1008E000819591098617970710F5689480F81296FC
:1008F0003496BACF4A855B8548305105C0F0809266
:10090000540290925502A0925602B09257021C01D6
:10091000369427943092B6012092B50130931B0192
:1009200020931A01109319010093180109C00F5F59
:100930001F4F59E0650E711C0730110509F035CFC6
:1009400010921F0110921E0110921D0110921C01A5
:1009500080911C0190911D018334910540F010920B
:100960001D0110921C0110921F0110921E01809116
:100970001C0190911D019C012F5F3F4F30931D0181
:1009800020931C01880F991FFC01E05EFE4F5182ED
:100990004082C092A601D092A701E092A801F092F5
:1009A000A90165960FB6F894DEBF0FBECDBFDF91EB
:1009B000CF911F910F91FF90EF90DF90CF90BF905C
:1009C000AF909F908F907F906F905F904F903F90EF
:1009D0002F9008950E942D071F920F920FB60F922D
:1009E00011242F933F934F935F936F937F938F9334
:1009F0009F93AF93BF93EF93FF9387EB91E00E9498
:100A00001E01FF91EF91BF91AF919F918F917F91C7
:100A10006F915F914F913F912F910F900FBE0F906B
:100A20001F9018951F920F920FB60F9211242F93BB
:100A30008F939F93EF93FF93E091C701F091C801CB
:100A40008081E091CD01F091CE0182FD12C09081B4
:100A50008091D0018F5F8F732091D101821751F067
:100A6000E091D001F0E0E954FE4F958F8093D001E2
:100A700001C08081FF91EF919F918F912F910F90F5
:100A80000FBE0F901F9018951F920F920FB60F92E6
:100A900011242F933F938F939F93AF93BF93809194
:100AA000AB019091AC01A091AD01B091AE0130913C
:100AB000AA0123E0230F2D3720F40196A11DB11DBB
:100AC00005C026E8230F0296A11DB11D2093AA019F
:100AD0008093AB019093AC01A093AD01B093AE01B4
:100AE0008091AF019091B001A091B101B091B2019C
:100AF0000196A11DB11D8093AF019093B001A09309
:100B0000B101B093B201BF91AF919F918F913F918D
:100B10002F910F900FBE0F901F9018951F920F925C
:100B20000FB60F9211242F933F934F935F936F93C0
:100B30007F938F939F93AF93BF93EF93FF93E09136
:100B40000201F09103010995FF91EF91BF91AF91DF
:100B50009F918F917F916F915F914F913F912F91D5
:100B60000F900FBE0F901F9018951F920F920FB607
:100B70000F9211242F933F934F935F936F937F9323
:100B80008F939F93AF93BF93EF93FF93E0910001F7
:100B9000F09101010995FF91EF91BF91AF919F9164
:100BA0008F917F916F915F914F913F912F910F9016
:100BB0000FBE0F901F9018950F931F93CF93DF9345
:100BC000E7EBF1E01382128288EE93E0A0E0B0E060
:100BD00084839583A683B7838AE091E091838083A1
:100BE00085EC90E09587848784EC90E097878687F2
:100BF00080EC90E0918B808B81EC90E0938B828BEA
:100C000082EC90E0958B848B86EC90E0978B868BC2
:100C1000118E128E138E148EC8E5D2E00FEF1FEFE7
:100C20001B830A838AE090E09D838C8349E050E037
:100C300062EC70E08EE592E00E940A071983088357
:100C40008CE390E09093050180930401109254028C
:100C5000109255021092560210925702DF91CF91D6
:100C60001F910F910895789484B5826084BD84B5F6
:100C7000816084BD85B5826085BD85B5816085BD97
:100C800080916E00816080936E001092810080914F
:100C900081008260809381008091810081608093D7
:100CA0008100809180008160809380008091B100FC
:100CB00084608093B1008091B00081608093B00027
:100CC00080917A00846080937A0080917A008260BB
:100CD00080937A0080917A00816080937A0080917D
:100CE0007A00806880937A001092C100E091C70179
:100CF000F091C80182E08083E091C301F091C401CA
:100D00001082E091C501F091C6018FEC80831092B2
:100D1000CF01E091CB01F091CC0186E08083E0919E
:100D2000C901F091CA01808180618083E091C9018D
:100D3000F091CA01808188608083E091C901F091BF
:100D4000CA01808180688083E091C901F091CA0165
:100D500080818F7D808387E090E090935B02809319
:100D60005A0261E00E94260360E088E00E942603A8
:100D700061E08CE00E94260360E086E00E9426038A
:100D800061E085E00E94260388E00E94DB019093E9
:100D9000B4018093B301019769F56EE276E180E0DA
:100DA00090E00E9476020E9462034B015C0182E3A4
:100DB000C82ED12CE12CF12C0E946203DC01CB0166
:100DC00088199909AA09BB09883E9340A105B10574
:100DD00058F021E0C21AD108E108F10888EE880E27
:100DE00083E0981EA11CB11CC114D104E104F104DC
:100DF00019F706C062ED74E080E090E00E94760290
:100E000086E00E94DB01682F85E00E9404020E94B8
:100E1000A801BACFFB01DC0102C005900D92415040
:100E20005040D8F70895AA1BBB1B51E107C0AA1F69
:100E3000BB1FA617B70710F0A61BB70B881F991F7B
:100E40005A95A9F780959095BC01CD010895EE0FB4
:100E5000FF1F0590F491E02D099481E090E0F89453
:080E60000C943207F894FFCF57
:100E6800A700A7003C00000000003F01A800D70031
:080E780086010801E600FA0002
:107800000C94343C0C94513C0C94513C0C94513CE1
:107810000C94513C0C94513C0C94513C0C94513CB4
:107820000C94513C0C94513C0C94513C0C94513CA4
:107830000C94513C0C94513C0C94513C0C94513C94
:107840000C94513C0C94513C0C94513C0C94513C84
:107850000C94513C0C94513C0C94513C0C94513C74
:107860000C94513C0C94513C11241FBECFEFD8E036
:10787000DEBFCDBF11E0A0E0B1E0ECE9FFE702C060
:1078800005900D92A230B107D9F712E0A2E0B1E065
:1078900001C01D92AD30B107E1F70E942D3D0C945F
:1078A000CC3F0C94003C982F959595959595959582
:1078B000905D8F708A307CF0282F295A8091C0000B
:1078C00085FFFCCF9093C6008091C00085FFFCCF60
:1078D0002093C6000895282F205DF0CF982F809127
:1078E000C00085FFFCCF9093C6000895EF92FF92F1
:1078F0000F931F93EE24FF2487018091C00087FD22
:1079000017C00894E11CF11C011D111D81E4E8164B
:1079100082E4F8068FE0080780E0180770F3E09132
:107920000401F091050109958091C00087FFE9CF1E
:107930008091C6001F910F91FF90EF9008950E94D3
:10794000763C982F8091C00085FFFCCF9093C600B5
:1079500091362CF490330CF09053892F089597555D
:10796000892F08951F930E949F3C182F0E949F3CCF
:107970001295107F810F1F9108951F93182F882350
:1079800021F00E94763C1150E1F71F9108951F935A
:10799000182F0E94763C803249F0809103018F5F5E
:1079A000809303018530C1F01F9108958091C0003C
:1079B00085FFFCCF84E18093C6008091C00085FFE5
:1079C000FCCF1093C6008091C00085FFFCCF80E102
:1079D0008093C6001F910895E0910401F091050184
:1079E00009951F9108950E94763C803241F0809164
:1079F00003018F5F80930301853081F008958091AA
:107A0000C00085FFFCCF84E18093C6008091C00058
:107A100085FFFCCF80E18093C6000895E0910401CA
:107A2000F09105010995089540E951E08823A1F0FE
:107A30002D9A28EE33E0FA013197F1F721503040CA
:107A4000D1F72D9828EE33E0FA013197F1F7215064
:107A50003040D1F7815061F708953F924F925F9285
:107A60006F927F928F929F92AF92BF92CF92DF924E
:107A7000EF92FF920F931F93CF93DF93000080E16B
:107A80008093C4001092C50088E18093C10086E015
:107A90008093C2005098589A259A81E00E94143D24
:107AA00024E1F22E9EE1E92E85E9D82E0FE0C02ECA
:107AB00010E1B12EAA24A394B1E49B2EA6E58A2E50
:107AC000F2E57F2EE0E26E2E79E4572E63E5462E36
:107AD00050E5352E0E94763C8033B1F18133B9F107
:107AE000803409F46FC0813409F476C0823409F41B
:107AF00085C0853409F488C0803531F1823521F1A3
:107B0000813511F1853509F485C0863509F48DC0BC
:107B1000843609F496C0843709F403C1853709F423
:107B200072C1863709F466C0809103018F5F80932C
:107B30000301853079F6E0910401F0910501099582
:107B40000E94763C803351F60E94F33CC3CF0E94E2
:107B5000763C803249F78091C00085FFFCCFF092DF
:107B6000C6008091C00085FFFCCF9092C600809136
:107B7000C00085FFFCCF8092C6008091C00085FFC9
:107B8000FCCF7092C6008091C00085FFFCCF609250
:107B9000C6008091C00085FFFCCF5092C600809146
:107BA000C00085FFFCCF4092C6008091C00085FFD9
:107BB000FCCF3092C6008091C00085FFFCCFB09210
:107BC000C60088CF0E94763C863808F4BDCF0E945C
:107BD000763C0E94F33C7ECF0E94763C803809F4CC
:107BE0009CC0813809F40BC1823809F43CC1883942
:107BF00009F48FC080E00E94C73C6CCF84E10E94F2
:107C0000BD3C0E94F33C66CF85E00E94BD3C0E94D3
:107C1000F33C60CF0E94763C809306010E94763C44
:107C2000809307010E94F33C55CF0E94763C80333D
:107C300009F41DC183E00E94BD3C80E00E94C73C66
:107C400049CF0E94763C809309020E94763C809343
:107C5000080280910C028E7F80930C020E94763C79
:107C6000853409F415C18091080290910902892B8D
:107C700089F000E010E00E94763CF801E85FFE4FDA
:107C800080830F5F1F4F80910802909109020817AF
:107C9000190788F30E94763C803209F045CF809125
:107CA0000C0280FF01C16091060170910701660F0F
:107CB000771F7093070160930601A0910802B091AD
:107CC00009021097C9F0E8E0F1E09B01AD014E0F09
:107CD0005F1FF999FECF32BD21BD819180BDFA9A17
:107CE000F99A2F5F3F4FE417F50799F76A0F7B1F4B
:107CF00070930701609306018091C00085FFFCCF5F
:107D0000F092C6008091C00085FFFCCFB092C60003
:107D1000E1CE83E00E94C73CDDCE82E00E94C73CFA
:107D2000D9CE0E94763C809309020E94763C8093D3
:107D300008028091060190910701880F991F909386
:107D40000701809306010E94763C853409F4A6C0A1
:107D500080910C028E7F80930C020E94763C8032D0
:107D600009F0B8CE8091C00085FFFCCFF092C6002C
:107D7000609108027091090261157105B9F140E046
:107D800050E080910C02A82FA170B82FB27011C0E2
:107D9000BB2309F45CC0E0910601F0910701319624
:107DA000F0930701E09306014F5F5F4F46175707B7
:107DB000E8F4AA2369F3F999FECF209106013091E6
:107DC000070132BD21BDF89A90B58091C00085FFB2
:107DD000FCCF9093C6002F5F3F4F30930701209355
:107DE00006014F5F5F4F4617570718F38091C00099
:107DF00085FDE5CE8091C00085FFF8CFE0CE81E023
:107E00000E94C73C67CE0E94763C803209F08CCE3F
:107E10008091C00085FFFCCFF092C6008091C00029
:107E200085FFFCCFE092C6008091C00085FFFCCFAB
:107E3000D092C6008091C00085FFFCCFC092C600E2
:107E40008091C00085FFFCCFB092C60043CEE09188
:107E50000601F091070194918091C00085FFFCCF4D
:107E60009093C6009CCF80E10E94C73C33CE0E9415
:107E7000763C0E94763C182F0E94763C112309F430
:107E800083C0113009F484C08FE00E94C73C22CE29
:107E900080910C02816080930C02E5CE80910C02EF
:107EA000816080930C0259CF809107018823880F4D
:107EB000880B8A2180930B02809106019091070123
:107EC000880F991F90930701809306018091080203
:107ED00080FF09C080910802909109020196909359
:107EE000090280930802F894F999FECF1127E091D6
:107EF0000601F0910701C8E0D1E08091080290915D
:107F00000902103091F40091570001700130D9F34B
:107F100003E000935700E89500915700017001308D
:107F2000D9F301E100935700E89509901990009169
:107F3000570001700130D9F301E000935700E89534
:107F40001395103498F011270091570001700130FB
:107F5000D9F305E000935700E895009157000170B0
:107F60000130D9F301E100935700E895329602976A
:107F700009F0C7CF103011F00296E5CF112480919F
:107F8000C00085FFB9CEBCCE8EE10E94C73CA2CD19
:0C7F900085E90E94C73C9ECDF894FFCF0D
:027F9C00800063
:040000030000780081
:00000001FF
